:100000000C942A000C9447000C9447000C94470071
:100010000C9447000C9447000C9447000C94470044
:100020000C9447000C9447000C9447000C94470034
:100030000C9447000C9447000C9447000C94470024
:100040000C9447000C9447000C9447000C94470014
:100050000C94470011241FBECFE5D8E0DEBFCDBF12
:1000600010E0A0E6B0E0E6EBFDE002C005900D92E6
:10007000AA3FB107D9F721E0AAEFB0E001C01D9275
:10008000AA30B207E1F70E94C9050C94D9060C9476
:100090000000CF93DF93CDB7DEB78AE390E02FEF78
:1000A000FC0120838BE390E0FC01108289E390E067
:1000B000FC01108287E390E02FEFFC01208388E3AE
:1000C00090E0FC01108286E390E0FC01108284E362
:1000D00090E02FEFFC01208385E390E0FC0110828B
:1000E00083E390E0FC01108281E390E020EFFC01CB
:1000F000208382E390E02FE0FC01208380E390E006
:10010000FC0110820000DF91CF910895CF93DF931F
:1001100000D00F92CDB7DEB78A836B8381E08983ED
:100120008A81803208F0DAC08B81882F90E00097B6
:1001300021F0019709F46DC0CEC08A818830A8F4FF
:100140008AE390E0FC018081282F8A81882F90E04B
:100150008770992786519F4FFC01808180952823C5
:100160008AE390E0FC012083BBC08A818830C0F024
:100170008A818031A8F487E390E0FC018081282FF8
:100180008A81882F90E08770992786519F4FFC01C4
:1001900080818095282387E390E0FC01208338C08C
:1001A0008A818031C0F08A818831A8F484E390E0AC
:1001B000FC018081282F8A81882F90E08770992701
:1001C00086519F4FFC0180818095282384E390E035
:1001D000FC0120831DC08A81883108F481C08A8196
:1001E000803208F07DC081E390E0FC018081282FFF
:1001F0008A81882F90E08770992786519F4FFC0154
:1002000080818095282381E390E0FC01208368C0F1
:1002100067C08A81883098F48AE390E0FC013081DD
:100220008A81882F90E08770992786519F4FFC0123
:1002300020818AE390E0232BFC01208353C08A8134
:100240008830B0F08A81803198F487E390E0FC0137
:1002500030818A81882F90E08770992786519F4F3F
:10026000FC01208187E390E0232BFC01208332C036
:100270008A818031B0F08A81883198F484E390E0FB
:10028000FC0130818A81882F90E087709927865100
:100290009F4FFC01208184E390E0232BFC0120830D
:1002A00019C08A818831F0F08A818032D8F481E3E4
:1002B00090E0FC0130818A81882F90E08770992737
:1002C00086519F4FFC01208181E390E0232BFC01AC
:1002D000208308C007C01982000005C0198203C02E
:1002E000000001C0000089810F900F900F90DF91F6
:1002F000CF910895CF93DF9300D00F92CDB7DEB7A3
:100300008A836B8381E089838A81803208F0D9C037
:100310008B81882F90E0009721F0019709F46DC040
:10032000CEC08A818830A8F48BE390E0FC01808104
:10033000282F8A81882F90E08770992786519F4FB8
:10034000FC018081809528238BE390E0FC012083D1
:10035000BAC08A818830C0F08A818031A8F488E3ED
:1003600090E0FC018081282F8A81882F90E087709F
:10037000992786519F4FFC0180818095282388E32F
:1003800090E0FC01208338C08A818031C0F08A81EE
:100390008831A8F485E390E0FC018081282F8A81D0
:1003A000882F90E08770992786519F4FFC018081AC
:1003B0008095282385E390E0FC0120831DC08A817D
:1003C000883108F480C08A81803208F07CC082E3E2
:1003D00090E0FC018081282F8A81882F90E087702F
:1003E000992786519F4FFC0180818095282382E3C5
:1003F00090E0FC01208367C066C08A81883098F451
:100400008BE390E0FC0130818A81882F90E0877037
:10041000992786519F4FFC0120818BE390E0232B8D
:10042000FC01208352C08A818830B0F08A818031FB
:1004300098F488E390E0FC0130818A81882F90E075
:100440008770992786519F4FFC01208188E390E0B7
:10045000232BFC01208332C08A818031B0F08A8155
:10046000883198F485E390E0FC0130818A81882FFF
:1004700090E08770992786519F4FFC01208185E38A
:1004800090E0232BFC01208319C08A818831E8F099
:100490008A818032D0F482E390E0FC0130818A814D
:1004A000882F90E08770992786519F4FFC0120810B
:1004B00082E390E0232BFC01208307C006C0198251
:1004C00005C0198203C0000001C0000089810F909F
:1004D0000F900F90DF91CF910895CF93DF9300D0CD
:1004E00000D0CDB7DEB78A837C836B8381E08983BC
:1004F0008A81803208F068C08B819C81892B09F445
:1005000063C08A81883098F489E390E0FC012081FF
:100510008A81882F90E08770992786519F4FFC0130
:10052000808128238B819C81FC0120834AC08A81A1
:100530008830B0F08A81803198F486E390E0FC0145
:1005400020818A81882F90E08770992786519F4F5C
:10055000FC01808128238B819C81FC01208331C098
:100560008A818031B0F08A81883198F483E390E009
:10057000FC0120818A81882F90E08770992786511D
:100580009F4FFC01808128238B819C81FC0120836B
:1005900018C08A818831A8F08A81803290F480E383
:1005A00090E0FC0120818A81882F90E08770992754
:1005B00086519F4FFC01808128238B819C81FC0107
:1005C000208381E0898301C0198289810F900F9077
:1005D0000F900F90DF91CF910895CF93DF9300D0CC
:1005E0000F92CDB7DEB78A836B8381E089838A81DE
:1005F000843008F057C08B81882F90E0009721F05D
:100600008F3F910509F14BC08A81882329F48AE341
:1006100090E0FC01108248C08A81813029F487E390
:1006200090E0FC01108240C08A81823029F484E38A
:1006300090E0FC01108238C08A818330A9F581E303
:1006400090E0FC01108230C08A81882F90E08130D8
:10065000910591F0823091051CF4892B39F025C069
:100660008230910579F0039799F01FC08AE390E0FA
:100670002FEFFC01208312C087E390E02FEFFC01F5
:1006800020830CC084E390E02FEFFC01208306C0A0
:1006900081E390E02FEFFC012083000006C0198267
:1006A000000003C0198201C0000089810F900F90E3
:1006B0000F90DF91CF910895CF93DF9300D00F92E9
:1006C000CDB7DEB78A836B8381E089838A818430EA
:1006D00008F07CC08B81882F90E08F3F91053CF41F
:1006E000181619060CF44CC0892B29F06DC08F3FE9
:1006F000910511F169C08A81882329F48BE390E088
:10070000FC01108265C08A81813029F488E390E081
:10071000FC0110825DC08A81823029F485E390E07B
:10072000FC01108255C08A81833009F051C082E3F8
:1007300090E0FC0110824CC08A81882331F48BE365
:1007400090E02FEFFC01208345C08A81813031F495
:1007500088E390E02FEFFC0120833CC08A81823047
:1007600031F485E390E02FEFFC01208333C08A81D0
:10077000833081F582E390E02FEFFC0120832AC0D3
:100780008A81882331F48BE390E02B81FC01208364
:1007900023C08A81813031F488E390E02B81FC0111
:1007A00020831AC08A81823031F485E390E02B8166
:1007B000FC01208311C08A81833071F482E390E0D0
:1007C0002B81FC01208308C0198207C0198205C053
:1007D000000003C0000001C0000089810F900F904D
:1007E0000F90DF91CF910895CF93DF9300D000D089
:1007F000CDB7DEB78A837C836B8381E089838A816E
:100800008032B0F58B819C81892B91F18A8188237C
:1008100049F489E390E0FC0120818B819C81FC01FB
:10082000208323C08A81813049F486E390E0FC0173
:1008300020818B819C81FC01208317C08A818230BA
:1008400049F483E390E0FC0120818B819C81FC01D1
:1008500020830BC08A81882341F480E390E0FC016F
:1008600020818B819C81FC01208381E0898301C0F0
:10087000198289810F900F900F900F90DF91CF9187
:100880000895CF93DF9300D000D000D00F92CDB762
:10089000DEB79F838E838E819F81892B11F419820D
:1008A00066C01A8260C01B820EC08B81882F90E0C8
:1008B0008C599F4FFC01808161E00E947A018983FD
:1008C0008B818F5F8B838B81843078F38A81882F33
:1008D00090E08C599F4FFC01808160E00E947A017A
:1008E00089831C823AC08C81882F90E0805A9F4F68
:1008F000FC012081CE010596BC01822F0E946D0271
:1009000089838D818823A1F48A81882F90E0880FC4
:10091000991F880F991F2E813F81280F391F8C81C5
:10092000882F90E0820F931F21E0FC01208312C0EA
:100930008A81882F90E0880F991F880F991F2E8138
:100940003F81280F391F8C81882F90E0820F931FE1
:10095000FC0110828C818F5F8C838C81843018F233
:100960008A818F5F8A838A81843008F49CCF898151
:1009700027960FB6F894DEBF0FBECDBFDF91CF91A3
:100980000895CF93DF9300D000D00F92CDB7DEB79C
:100990009C838B836D8381E089831A828D81813072
:1009A00029F08D81882311F019826EC08D81882FE6
:1009B00090E0009719F00197A1F166C060E081E036
:1009C0000E945C031A8229C080916800682F82E02F
:1009D0000E945C038A81882F90E02B813C81820FEA
:1009E000931FFC018081682F80E00E945C0380914E
:1009F0006800882F90E0880F991F982F80916800D9
:100A0000881F8827881F892B8093680082E090E0E8
:100A10000E944D058A818F5F8A838A818830A0F287
:100A200033C060E080E00E945C031A8229C080919C
:100A30006800682F82E00E945C038A81882F90E022
:100A40002B813C81820F931FFC018081682F81E004
:100A50000E945C0380916800882F90E0880F991FA6
:100A6000982F80916800881F8827881F892B809382
:100A7000680082E090E00E944D058A818F5F8A8342
:100A80008A818830A0F2000089810F900F900F902A
:100A90000F900F90DF91CF910895CF93DF93CDB753
:100AA000DEB72A970FB6F894DEBF0FBECDBF9A8788
:100AB00089871D821E821F82188628C019821A8289
:100AC0001B821C820FC00000000000000000898112
:100AD0009A81AB81BC810196A11DB11D89839A8346
:100AE000AB83BC8389819A81AB81BC81803D9105B8
:100AF000A105B10540F38D819E81AF81B885019636
:100B0000A11DB11D8D839E83AF83B88789859A858A
:100B1000CC01A0E0B0E02D813E814F81588528179F
:100B200039074A075B0750F200002A960FB6F8947F
:100B3000DEBF0FBECDBFDF91CF910895CF93DF937E
:100B400000D000D0CDB7DEB79C838B838B819C8196
:100B500045979C01A9E8B8E80E94CA069695879532
:100B600096958795969587959A83898306C0000008
:100B700089819A8101979A83898389819A81892BB6
:100B8000B1F700000F900F900F900F90DF91CF9171
:100B90000895CF93DF9300D000D00F92CDB7DEB78A
:100BA0000E94490019821A8219821AC01B8212C03F
:100BB0008981882F90E0880F991F880F991F880FCF
:100BC000991F86599F4F61E00E94C1048D838B81DC
:100BD0008F5F8B838B818A3058F389818F5F898304
:100BE0008981882319F38AEF90E00E9441048D8364
:100BF00080910301813009F040C019821AC01A8225
:100C000012C08981882F90E0880F991F880F991F43
:100C1000880F991F8E539F4F61E00E94C1048D83FE
:100C20008A818F5F8A838A818E3158F389818F5FB1
:100C300089838981853018F384E089831AC01A82F8
:100C400012C08981882F90E0880F991F880F991F03
:100C5000880F991F8E539F4F61E00E94C1048D83BE
:100C60008A818F5F8A838A818E3158F3898181508E
:100C700089838981882319F7B6CF8091FB00813061
:100C800001F519821AC01C8212C08981882F90E058
:100C9000880F991F880F991F880F991F86549F4F9F
:100CA00061E00E94C1048D838C818F5F8C838C8175
:100CB000882359F389818F5F89838981882319F378
:100CC00092CF80910001813001F519821AC01A82F9
:100CD00012C08981882F90E0880F991F880F991F73
:100CE000880F991F8E589F4F61E00E94C1048D8329
:100CF0008A818F5F8A838A818A3058F389818F5FE6
:100D000089838981893018F36ECF8091FE0081300C
:100D100009F589E089831AC01A8212C08981882F57
:100D200090E0880F991F880F991F880F991F8E5880
:100D30009F4F61E00E94C1048D838A818F5F8A8307
:100D40008A818A3058F389818150898389818823F7
:100D500019F749CF19821AC01A8212C08981882FC7
:100D600090E0880F991F880F991F880F991F865947
:100D70009F4F61E00E94C1048D838A818F5F8A83C7
:100D80008A818A3058F389818F5F8983898188239A
:100D900019F329CFA29FB001B39FC001A39F700D8B
:100DA000811D1124911DB29F700D811D1124911D73
:060DB0000895F894FFCF46
:100DB60018191A1B1C1D1E1FFE013C42423C187EC0
:100DC60018243C42423C187E18241E21211E0C3F4A
:100DD6000C120F90900F069F06098748488703CF8D
:100DE6000384C32424C381E78142E11212E1C0F3E4
:100DF600C021F00909F060F960907884847830FCAD
:100E060030483C42423C187E1824000026A97979D5
:100E1600A9263C42423C187E182442423C187E18C1
:100E260024003C187E18240000007E1824000000D0
:100E36000000240000000000000001020408102049
:0A0E460040800102040810204080E3
:00000001FF
